{
  "contractName": "ColorStore",
  "abi": [
    {
      "inputs": [
        {
          "internalType": "contract ERC721",
          "name": "token",
          "type": "address"
        },
        {
          "internalType": "uint256",
          "name": "rateInWei",
          "type": "uint256"
        }
      ],
      "stateMutability": "nonpayable",
      "type": "constructor"
    },
    {
      "stateMutability": "payable",
      "type": "receive",
      "payable": true
    },
    {
      "inputs": [
        {
          "internalType": "uint256",
          "name": "tokenId",
          "type": "uint256"
        }
      ],
      "name": "buyToken",
      "outputs": [],
      "stateMutability": "payable",
      "type": "function",
      "payable": true
    },
    {
      "inputs": [
        {
          "internalType": "uint256",
          "name": "tokenId",
          "type": "uint256"
        }
      ],
      "name": "sellToken",
      "outputs": [],
      "stateMutability": "nonpayable",
      "type": "function"
    }
  ],
  "bytecode": "0x608060405234801561001057600080fd5b506040516107fa3803806107fa833981810160405281019061003291906100aa565b816000806101000a81548173ffffffffffffffffffffffffffffffffffffffff021916908373ffffffffffffffffffffffffffffffffffffffff160217905550806001819055505050610162565b60008151905061008f81610134565b92915050565b6000815190506100a48161014b565b92915050565b600080604083850312156100bd57600080fd5b60006100cb85828601610080565b92505060206100dc85828601610095565b9150509250929050565b60006100f18261010a565b9050919050565b6000610103826100e6565b9050919050565b600073ffffffffffffffffffffffffffffffffffffffff82169050919050565b6000819050919050565b61013d816100f8565b811461014857600080fd5b50565b6101548161012a565b811461015f57600080fd5b50565b610689806101716000396000f3fe60806040526004361061002d5760003560e01c80632397e4d7146101815780632d296bf1146101aa5761017c565b3661017c5760005b62ffffff81101561013e5760008054906101000a900473ffffffffffffffffffffffffffffffffffffffff1673ffffffffffffffffffffffffffffffffffffffff16636352211e826040518263ffffffff1660e01b81526004016100999190610545565b60206040518083038186803b1580156100b157600080fd5b505afa1580156100c5573d6000803e3d6000fd5b505050506040513d601f19601f820116820180604052508101906100e991906103b8565b73ffffffffffffffffffffffffffffffffffffffff163073ffffffffffffffffffffffffffffffffffffffff16141561012b57610125816101c6565b5061017a565b8080610136906105ad565b915050610035565b506040517f08c379a000000000000000000000000000000000000000000000000000000000815260040161017190610505565b60405180910390fd5b005b600080fd5b34801561018d57600080fd5b506101a860048036038101906101a391906103e1565b6102a7565b005b6101c460048036038101906101bf91906103e1565b610382565b005b600034905060015481106102685760008054906101000a900473ffffffffffffffffffffffffffffffffffffffff1673ffffffffffffffffffffffffffffffffffffffff166323b872dd3033856040518463ffffffff1660e01b8152600401610231939291906104ce565b600060405180830381600087803b15801561024b57600080fd5b505af115801561025f573d6000803e3d6000fd5b505050506102a3565b6040517f08c379a000000000000000000000000000000000000000000000000000000000815260040161029a90610525565b60405180910390fd5b5050565b60008054906101000a900473ffffffffffffffffffffffffffffffffffffffff1673ffffffffffffffffffffffffffffffffffffffff166323b872dd3330846040518463ffffffff1660e01b8152600401610304939291906104ce565b600060405180830381600087803b15801561031e57600080fd5b505af1158015610332573d6000803e3d6000fd5b505050503373ffffffffffffffffffffffffffffffffffffffff166108fc6001549081150290604051600060405180830381858888f1935050505015801561037e573d6000803e3d6000fd5b5050565b61038b816101c6565b50565b60008151905061039d81610625565b92915050565b6000813590506103b28161063c565b92915050565b6000602082840312156103ca57600080fd5b60006103d88482850161038e565b91505092915050565b6000602082840312156103f357600080fd5b6000610401848285016103a3565b91505092915050565b61041381610571565b82525050565b6000610426602083610560565b91507f4e6f20746f6b656e73206f776e6564206279207468697320636f6e74726163746000830152602082019050919050565b6000610466602883610560565b91507f4e6f7420656e6f7567682066756e64732070726f766964656420746f2062757960008301527f206120746f6b656e0000000000000000000000000000000000000000000000006020830152604082019050919050565b6104c8816105a3565b82525050565b60006060820190506104e3600083018661040a565b6104f0602083018561040a565b6104fd60408301846104bf565b949350505050565b6000602082019050818103600083015261051e81610419565b9050919050565b6000602082019050818103600083015261053e81610459565b9050919050565b600060208201905061055a60008301846104bf565b92915050565b600082825260208201905092915050565b600061057c82610583565b9050919050565b600073ffffffffffffffffffffffffffffffffffffffff82169050919050565b6000819050919050565b60006105b8826105a3565b91507fffffffffffffffffffffffffffffffffffffffffffffffffffffffffffffffff8214156105eb576105ea6105f6565b5b600182019050919050565b7f4e487b7100000000000000000000000000000000000000000000000000000000600052601160045260246000fd5b61062e81610571565b811461063957600080fd5b50565b610645816105a3565b811461065057600080fd5b5056fea264697066735822122010444fef374cfd66c44b54bc8beaf41e53c19eae2ba207f8691ac97aafdba93764736f6c63430008000033",
  "immutableReferences": {},
  "source": "// SPDX-License-Identifier: MIT\npragma solidity ^0.8.0;\n\nimport \"./ColorCoin.sol\";\n\ncontract ColorStore {\n\n    ERC721 private _token;\n\n    uint256 private _rateInWei;\n\n    constructor(ERC721 token, uint256 rateInWei) {\n        _token = token;\n        _rateInWei = rateInWei;\n    }\n\n    /**\n     * Function to be used by caller in order to buy token from this contract at predefined exchange rate.\n     */\n    function buyToken(uint tokenId) external payable {\n        _buyToken(tokenId);\n    }\n\n    /**\n     * Function to be used by caller in order to sell token to this contract at predefined exchange rate.\n     */\n    function sellToken(uint tokenId) external {\n        _token.transferFrom(msg.sender, address(this), tokenId);\n        payable(msg.sender).transfer(_rateInWei);\n    }\n\n    /**\n     * Default function that chooses some random NFT token to send back to user in exchange for\n     * funds. Note that for-loop is an extremely inefficient way of doing this.\n     */\n    receive() external payable {\n        for (uint tokenId = 0; tokenId < 0xFFFFFF; tokenId++) {\n            if (address(this) == _token.ownerOf(tokenId)) {\n                _buyToken(tokenId);\n                return;\n            }\n        }\n        revert(\"No tokens owned by this contract\");\n    }\n\n    function _buyToken(uint tokenId) private {\n        uint256 amountInWei = msg.value;\n        if (amountInWei >= _rateInWei) {\n            _token.transferFrom(address(this), msg.sender, tokenId);\n        } else {\n            revert(\"Not enough funds provided to buy a token\");\n        }\n    }\n\n}\n",
  "sourcePath": "/Users/guligo/Dev/color-store/color-store-contract/contracts/ColorStore.sol",
  "compiler": {
    "name": "solc",
    "version": "0.8.0+commit.c7dfd78e.Emscripten.clang"
  },
  "schemaVersion": "3.4.3",
  "updatedAt": "2021-11-20T17:01:43.508Z",
  "networkType": "ethereum",
  "devdoc": {
    "kind": "dev",
    "methods": {},
    "version": 1
  },
  "userdoc": {
    "kind": "user",
    "methods": {
      "buyToken(uint256)": {
        "notice": "Function to be used by caller in order to buy token from this contract at predefined exchange rate."
      },
      "sellToken(uint256)": {
        "notice": "Function to be used by caller in order to sell token to this contract at predefined exchange rate."
      }
    },
    "version": 1
  }
}