{
  "contractName": "ColorStore",
  "abi": [
    {
      "inputs": [
        {
          "internalType": "contract ColorCoin",
          "name": "token",
          "type": "address"
        },
        {
          "internalType": "uint256",
          "name": "rateInWei",
          "type": "uint256"
        }
      ],
      "stateMutability": "nonpayable",
      "type": "constructor"
    },
    {
      "stateMutability": "payable",
      "type": "receive",
      "payable": true
    },
    {
      "inputs": [
        {
          "internalType": "uint256",
          "name": "tokenId",
          "type": "uint256"
        }
      ],
      "name": "buyToken",
      "outputs": [],
      "stateMutability": "payable",
      "type": "function",
      "payable": true
    },
    {
      "inputs": [
        {
          "internalType": "uint256",
          "name": "tokenId",
          "type": "uint256"
        }
      ],
      "name": "sellToken",
      "outputs": [],
      "stateMutability": "nonpayable",
      "type": "function"
    }
  ],
  "bytecode": "0x608060405234801561001057600080fd5b50604051610a60380380610a60833981810160405281019061003291906100aa565b816000806101000a81548173ffffffffffffffffffffffffffffffffffffffff021916908373ffffffffffffffffffffffffffffffffffffffff160217905550806001819055505050610162565b60008151905061008f81610134565b92915050565b6000815190506100a48161014b565b92915050565b600080604083850312156100bd57600080fd5b60006100cb85828601610080565b92505060206100dc85828601610095565b9150509250929050565b60006100f18261010a565b9050919050565b6000610103826100e6565b9050919050565b600073ffffffffffffffffffffffffffffffffffffffff82169050919050565b6000819050919050565b61013d816100f8565b811461014857600080fd5b50565b6101548161012a565b811461015f57600080fd5b50565b6108ef806101716000396000f3fe60806040526004361061002d5760003560e01c80632397e4d71461026f5780632d296bf1146102985761026a565b3661026a5760008060009054906101000a900473ffffffffffffffffffffffffffffffffffffffff1673ffffffffffffffffffffffffffffffffffffffff166367f718a96040518163ffffffff1660e01b815260040160006040518083038186803b15801561009b57600080fd5b505afa1580156100af573d6000803e3d6000fd5b505050506040513d6000823e3d601f19601f820116820180604052508101906100d8919061057a565b905060005b815181101561022c576000828281518110610121577f4e487b7100000000000000000000000000000000000000000000000000000000600052603260045260246000fd5b6020026020010151905060008054906101000a900473ffffffffffffffffffffffffffffffffffffffff1673ffffffffffffffffffffffffffffffffffffffff16636352211e826040518263ffffffff1660e01b8152600401610184919061071f565b60206040518083038186803b15801561019c57600080fd5b505afa1580156101b0573d6000803e3d6000fd5b505050506040513d601f19601f820116820180604052508101906101d49190610551565b73ffffffffffffffffffffffffffffffffffffffff163073ffffffffffffffffffffffffffffffffffffffff16141561021857610210816102b4565b505050610268565b508080610224906107e4565b9150506100dd565b506040517f08c379a000000000000000000000000000000000000000000000000000000000815260040161025f906106df565b60405180910390fd5b005b600080fd5b34801561027b57600080fd5b50610296600480360381019061029191906105bb565b610395565b005b6102b260048036038101906102ad91906105bb565b610470565b005b600034905060015481106103565760008054906101000a900473ffffffffffffffffffffffffffffffffffffffff1673ffffffffffffffffffffffffffffffffffffffff166323b872dd3033856040518463ffffffff1660e01b815260040161031f939291906106a8565b600060405180830381600087803b15801561033957600080fd5b505af115801561034d573d6000803e3d6000fd5b50505050610391565b6040517f08c379a0000000000000000000000000000000000000000000000000000000008152600401610388906106ff565b60405180910390fd5b5050565b60008054906101000a900473ffffffffffffffffffffffffffffffffffffffff1673ffffffffffffffffffffffffffffffffffffffff166323b872dd3330846040518463ffffffff1660e01b81526004016103f2939291906106a8565b600060405180830381600087803b15801561040c57600080fd5b505af1158015610420573d6000803e3d6000fd5b505050503373ffffffffffffffffffffffffffffffffffffffff166108fc6001549081150290604051600060405180830381858888f1935050505015801561046c573d6000803e3d6000fd5b5050565b610479816102b4565b50565b600061048f61048a8461076b565b61073a565b905080838252602082019050828560208602820111156104ae57600080fd5b60005b858110156104de57816104c4888261053c565b8452602084019350602083019250506001810190506104b1565b5050509392505050565b6000815190506104f78161088b565b92915050565b600082601f83011261050e57600080fd5b815161051e84826020860161047c565b91505092915050565b600081359050610536816108a2565b92915050565b60008151905061054b816108a2565b92915050565b60006020828403121561056357600080fd5b6000610571848285016104e8565b91505092915050565b60006020828403121561058c57600080fd5b600082015167ffffffffffffffff8111156105a657600080fd5b6105b2848285016104fd565b91505092915050565b6000602082840312156105cd57600080fd5b60006105db84828501610527565b91505092915050565b6105ed816107a8565b82525050565b6000610600602083610797565b91507f4e6f20746f6b656e73206f776e6564206279207468697320636f6e74726163746000830152602082019050919050565b6000610640602883610797565b91507f4e6f7420656e6f7567682066756e64732070726f766964656420746f2062757960008301527f206120746f6b656e0000000000000000000000000000000000000000000000006020830152604082019050919050565b6106a2816107da565b82525050565b60006060820190506106bd60008301866105e4565b6106ca60208301856105e4565b6106d76040830184610699565b949350505050565b600060208201905081810360008301526106f8816105f3565b9050919050565b6000602082019050818103600083015261071881610633565b9050919050565b60006020820190506107346000830184610699565b92915050565b6000604051905081810181811067ffffffffffffffff821117156107615761076061085c565b5b8060405250919050565b600067ffffffffffffffff8211156107865761078561085c565b5b602082029050602081019050919050565b600082825260208201905092915050565b60006107b3826107ba565b9050919050565b600073ffffffffffffffffffffffffffffffffffffffff82169050919050565b6000819050919050565b60006107ef826107da565b91507fffffffffffffffffffffffffffffffffffffffffffffffffffffffffffffffff8214156108225761082161082d565b5b600182019050919050565b7f4e487b7100000000000000000000000000000000000000000000000000000000600052601160045260246000fd5b7f4e487b7100000000000000000000000000000000000000000000000000000000600052604160045260246000fd5b610894816107a8565b811461089f57600080fd5b50565b6108ab816107da565b81146108b657600080fd5b5056fea26469706673582212202a4255c2149a27ef7e013acc830720cdce3b81b458e2a0dff4558b500ce0e09a64736f6c63430008000033",
  "immutableReferences": {},
  "source": "// SPDX-License-Identifier: MIT\npragma solidity ^0.8.0;\n\nimport \"./ColorCoin.sol\";\n\ncontract ColorStore {\n\n    ColorCoin private _token;\n\n    uint256 private _rateInWei;\n\n    constructor(ColorCoin token, uint256 rateInWei) {\n        _token = token;\n        _rateInWei = rateInWei;\n    }\n\n    /**\n     * Function to be used by caller in order to buy token from this contract at predefined exchange rate.\n     */\n    function buyToken(uint tokenId) external payable {\n        _buyToken(tokenId);\n    }\n\n    /**\n     * Function to be used by caller in order to sell token to this contract at predefined exchange rate.\n     */\n    function sellToken(uint tokenId) external {\n        _token.transferFrom(msg.sender, address(this), tokenId);\n        payable(msg.sender).transfer(_rateInWei);\n    }\n\n    /**\n     * Default function that chooses some random NFT token to send back to user in exchange for funds.\n     */\n    receive() external payable {\n        uint256[] memory tokenIds = _token.getTokenIds();\n        for (uint i = 0; i < tokenIds.length; i++) {\n            uint256 tokenId = tokenIds[i];\n            if (address(this) == _token.ownerOf(tokenId)) {\n                _buyToken(tokenId);\n                return;\n            }\n        }\n        revert(\"No tokens owned by this contract\");\n    }\n\n    function _buyToken(uint tokenId) private {\n        uint256 amountInWei = msg.value;\n        if (amountInWei >= _rateInWei) {\n            _token.transferFrom(address(this), msg.sender, tokenId);\n        } else {\n            revert(\"Not enough funds provided to buy a token\");\n        }\n    }\n\n}\n",
  "sourcePath": "/Users/guligo/Dev/color-store/color-store-contract/contracts/ColorStore.sol",
  "compiler": {
    "name": "solc",
    "version": "0.8.0+commit.c7dfd78e.Emscripten.clang"
  },
  "schemaVersion": "3.4.3",
  "updatedAt": "2021-12-03T18:50:12.267Z",
  "networkType": "ethereum",
  "devdoc": {
    "kind": "dev",
    "methods": {},
    "version": 1
  },
  "userdoc": {
    "kind": "user",
    "methods": {
      "buyToken(uint256)": {
        "notice": "Function to be used by caller in order to buy token from this contract at predefined exchange rate."
      },
      "sellToken(uint256)": {
        "notice": "Function to be used by caller in order to sell token to this contract at predefined exchange rate."
      }
    },
    "version": 1
  }
}