{
  "contractName": "ColorCoin",
  "abi": [
    {
      "inputs": [],
      "stateMutability": "nonpayable",
      "type": "constructor"
    },
    {
      "anonymous": false,
      "inputs": [
        {
          "indexed": true,
          "internalType": "address",
          "name": "owner",
          "type": "address"
        },
        {
          "indexed": true,
          "internalType": "address",
          "name": "approved",
          "type": "address"
        },
        {
          "indexed": true,
          "internalType": "uint256",
          "name": "tokenId",
          "type": "uint256"
        }
      ],
      "name": "Approval",
      "type": "event"
    },
    {
      "anonymous": false,
      "inputs": [
        {
          "indexed": true,
          "internalType": "address",
          "name": "owner",
          "type": "address"
        },
        {
          "indexed": true,
          "internalType": "address",
          "name": "operator",
          "type": "address"
        },
        {
          "indexed": false,
          "internalType": "bool",
          "name": "approved",
          "type": "bool"
        }
      ],
      "name": "ApprovalForAll",
      "type": "event"
    },
    {
      "anonymous": false,
      "inputs": [
        {
          "indexed": true,
          "internalType": "address",
          "name": "previousOwner",
          "type": "address"
        },
        {
          "indexed": true,
          "internalType": "address",
          "name": "newOwner",
          "type": "address"
        }
      ],
      "name": "OwnershipTransferred",
      "type": "event"
    },
    {
      "anonymous": false,
      "inputs": [
        {
          "indexed": true,
          "internalType": "address",
          "name": "from",
          "type": "address"
        },
        {
          "indexed": true,
          "internalType": "address",
          "name": "to",
          "type": "address"
        },
        {
          "indexed": true,
          "internalType": "uint256",
          "name": "tokenId",
          "type": "uint256"
        }
      ],
      "name": "Transfer",
      "type": "event"
    },
    {
      "inputs": [
        {
          "internalType": "address",
          "name": "to",
          "type": "address"
        },
        {
          "internalType": "uint256",
          "name": "tokenId",
          "type": "uint256"
        }
      ],
      "name": "approve",
      "outputs": [],
      "stateMutability": "nonpayable",
      "type": "function"
    },
    {
      "inputs": [
        {
          "internalType": "address",
          "name": "owner",
          "type": "address"
        }
      ],
      "name": "balanceOf",
      "outputs": [
        {
          "internalType": "uint256",
          "name": "",
          "type": "uint256"
        }
      ],
      "stateMutability": "view",
      "type": "function",
      "constant": true
    },
    {
      "inputs": [
        {
          "internalType": "uint256",
          "name": "tokenId",
          "type": "uint256"
        }
      ],
      "name": "getApproved",
      "outputs": [
        {
          "internalType": "address",
          "name": "",
          "type": "address"
        }
      ],
      "stateMutability": "view",
      "type": "function",
      "constant": true
    },
    {
      "inputs": [
        {
          "internalType": "address",
          "name": "owner",
          "type": "address"
        },
        {
          "internalType": "address",
          "name": "operator",
          "type": "address"
        }
      ],
      "name": "isApprovedForAll",
      "outputs": [
        {
          "internalType": "bool",
          "name": "",
          "type": "bool"
        }
      ],
      "stateMutability": "view",
      "type": "function",
      "constant": true
    },
    {
      "inputs": [],
      "name": "name",
      "outputs": [
        {
          "internalType": "string",
          "name": "",
          "type": "string"
        }
      ],
      "stateMutability": "view",
      "type": "function",
      "constant": true
    },
    {
      "inputs": [],
      "name": "owner",
      "outputs": [
        {
          "internalType": "address",
          "name": "",
          "type": "address"
        }
      ],
      "stateMutability": "view",
      "type": "function",
      "constant": true
    },
    {
      "inputs": [
        {
          "internalType": "uint256",
          "name": "tokenId",
          "type": "uint256"
        }
      ],
      "name": "ownerOf",
      "outputs": [
        {
          "internalType": "address",
          "name": "",
          "type": "address"
        }
      ],
      "stateMutability": "view",
      "type": "function",
      "constant": true
    },
    {
      "inputs": [],
      "name": "renounceOwnership",
      "outputs": [],
      "stateMutability": "nonpayable",
      "type": "function"
    },
    {
      "inputs": [
        {
          "internalType": "address",
          "name": "from",
          "type": "address"
        },
        {
          "internalType": "address",
          "name": "to",
          "type": "address"
        },
        {
          "internalType": "uint256",
          "name": "tokenId",
          "type": "uint256"
        }
      ],
      "name": "safeTransferFrom",
      "outputs": [],
      "stateMutability": "nonpayable",
      "type": "function"
    },
    {
      "inputs": [
        {
          "internalType": "address",
          "name": "from",
          "type": "address"
        },
        {
          "internalType": "address",
          "name": "to",
          "type": "address"
        },
        {
          "internalType": "uint256",
          "name": "tokenId",
          "type": "uint256"
        },
        {
          "internalType": "bytes",
          "name": "_data",
          "type": "bytes"
        }
      ],
      "name": "safeTransferFrom",
      "outputs": [],
      "stateMutability": "nonpayable",
      "type": "function"
    },
    {
      "inputs": [
        {
          "internalType": "address",
          "name": "operator",
          "type": "address"
        },
        {
          "internalType": "bool",
          "name": "approved",
          "type": "bool"
        }
      ],
      "name": "setApprovalForAll",
      "outputs": [],
      "stateMutability": "nonpayable",
      "type": "function"
    },
    {
      "inputs": [
        {
          "internalType": "bytes4",
          "name": "interfaceId",
          "type": "bytes4"
        }
      ],
      "name": "supportsInterface",
      "outputs": [
        {
          "internalType": "bool",
          "name": "",
          "type": "bool"
        }
      ],
      "stateMutability": "view",
      "type": "function",
      "constant": true
    },
    {
      "inputs": [],
      "name": "symbol",
      "outputs": [
        {
          "internalType": "string",
          "name": "",
          "type": "string"
        }
      ],
      "stateMutability": "view",
      "type": "function",
      "constant": true
    },
    {
      "inputs": [
        {
          "internalType": "uint256",
          "name": "tokenId",
          "type": "uint256"
        }
      ],
      "name": "tokenURI",
      "outputs": [
        {
          "internalType": "string",
          "name": "",
          "type": "string"
        }
      ],
      "stateMutability": "view",
      "type": "function",
      "constant": true
    },
    {
      "inputs": [
        {
          "internalType": "address",
          "name": "from",
          "type": "address"
        },
        {
          "internalType": "address",
          "name": "to",
          "type": "address"
        },
        {
          "internalType": "uint256",
          "name": "tokenId",
          "type": "uint256"
        }
      ],
      "name": "transferFrom",
      "outputs": [],
      "stateMutability": "nonpayable",
      "type": "function"
    },
    {
      "inputs": [
        {
          "internalType": "address",
          "name": "newOwner",
          "type": "address"
        }
      ],
      "name": "transferOwnership",
      "outputs": [],
      "stateMutability": "nonpayable",
      "type": "function"
    },
    {
      "inputs": [
        {
          "internalType": "address",
          "name": "to",
          "type": "address"
        },
        {
          "internalType": "uint256",
          "name": "tokenId",
          "type": "uint256"
        }
      ],
      "name": "createColor",
      "outputs": [],
      "stateMutability": "nonpayable",
      "type": "function"
    },
    {
      "inputs": [],
      "name": "getTokenIds",
      "outputs": [
        {
          "internalType": "uint256[]",
          "name": "",
          "type": "uint256[]"
        }
      ],
      "stateMutability": "view",
      "type": "function",
      "constant": true
    }
  ],
  "bytecode": "0x60806040523480156200001157600080fd5b506040518060400160405280600981526020017f436f6c6f72436f696e00000000000000000000000000000000000000000000008152506040518060400160405280600381526020017f434f4c0000000000000000000000000000000000000000000000000000000000815250816000908051906020019062000096929190620001a6565b508060019080519060200190620000af929190620001a6565b505050620000d2620000c6620000d860201b60201c565b620000e060201b60201c565b620002bb565b600033905090565b6000600660009054906101000a900473ffffffffffffffffffffffffffffffffffffffff16905081600660006101000a81548173ffffffffffffffffffffffffffffffffffffffff021916908373ffffffffffffffffffffffffffffffffffffffff1602179055508173ffffffffffffffffffffffffffffffffffffffff168173ffffffffffffffffffffffffffffffffffffffff167f8be0079c531659141344cd1fd0a4f28419497f9722a3daafe3b4186f6b6457e060405160405180910390a35050565b828054620001b49062000256565b90600052602060002090601f016020900481019282620001d8576000855562000224565b82601f10620001f357805160ff191683800117855562000224565b8280016001018555821562000224579182015b828111156200022357825182559160200191906001019062000206565b5b50905062000233919062000237565b5090565b5b808211156200025257600081600090555060010162000238565b5090565b600060028204905060018216806200026f57607f821691505b602082108114156200028657620002856200028c565b5b50919050565b7f4e487b7100000000000000000000000000000000000000000000000000000000600052602260045260246000fd5b612ba980620002cb6000396000f3fe608060405234801561001057600080fd5b50600436106101165760003560e01c8063715018a6116100a2578063b88d4fde11610071578063b88d4fde146102cd578063c774203b146102e9578063c87b56dd14610305578063e985e9c514610335578063f2fde38b1461036557610116565b8063715018a61461026b5780638da5cb5b1461027557806395d89b4114610293578063a22cb465146102b157610116565b806323b872dd116100e957806323b872dd146101b557806342842e0e146101d15780636352211e146101ed57806367f718a91461021d57806370a082311461023b57610116565b806301ffc9a71461011b57806306fdde031461014b578063081812fc14610169578063095ea7b314610199575b600080fd5b61013560048036038101906101309190611cb3565b610381565b60405161014291906124f8565b60405180910390f35b610153610463565b6040516101609190612513565b60405180910390f35b610183600480360381019061017e9190611d05565b6104f5565b604051610190919061246f565b60405180910390f35b6101b360048036038101906101ae9190611c77565b61057a565b005b6101cf60048036038101906101ca9190611b71565b610692565b005b6101eb60048036038101906101e69190611b71565b6106f2565b005b61020760048036038101906102029190611d05565b610712565b604051610214919061246f565b60405180910390f35b6102256107c4565b60405161023291906124d6565b60405180910390f35b61025560048036038101906102509190611b0c565b61081c565b6040516102629190612735565b60405180910390f35b6102736108d4565b005b61027d61095c565b60405161028a919061246f565b60405180910390f35b61029b610986565b6040516102a89190612513565b60405180910390f35b6102cb60048036038101906102c69190611c3b565b610a18565b005b6102e760048036038101906102e29190611bc0565b610b99565b005b61030360048036038101906102fe9190611c77565b610bfb565b005b61031f600480360381019061031a9190611d05565b610cae565b60405161032c9190612513565b60405180910390f35b61034f600480360381019061034a9190611b35565b610d55565b60405161035c91906124f8565b60405180910390f35b61037f600480360381019061037a9190611b0c565b610de9565b005b60007f80ac58cd000000000000000000000000000000000000000000000000000000007bffffffffffffffffffffffffffffffffffffffffffffffffffffffff1916827bffffffffffffffffffffffffffffffffffffffffffffffffffffffff1916148061044c57507f5b5e139f000000000000000000000000000000000000000000000000000000007bffffffffffffffffffffffffffffffffffffffffffffffffffffffff1916827bffffffffffffffffffffffffffffffffffffffffffffffffffffffff1916145b8061045c575061045b82610ee1565b5b9050919050565b6060600080546104729061299e565b80601f016020809104026020016040519081016040528092919081815260200182805461049e9061299e565b80156104eb5780601f106104c0576101008083540402835291602001916104eb565b820191906000526020600020905b8154815290600101906020018083116104ce57829003601f168201915b5050505050905090565b600061050082610f4b565b61053f576040517f08c379a000000000000000000000000000000000000000000000000000000000815260040161053690612675565b60405180910390fd5b6004600083815260200190815260200160002060009054906101000a900473ffffffffffffffffffffffffffffffffffffffff169050919050565b600061058582610712565b90508073ffffffffffffffffffffffffffffffffffffffff168373ffffffffffffffffffffffffffffffffffffffff1614156105f6576040517f08c379a00000000000000000000000000000000000000000000000000000000081526004016105ed906126f5565b60405180910390fd5b8073ffffffffffffffffffffffffffffffffffffffff16610615610fb7565b73ffffffffffffffffffffffffffffffffffffffff16148061064457506106438161063e610fb7565b610d55565b5b610683576040517f08c379a000000000000000000000000000000000000000000000000000000000815260040161067a906125f5565b60405180910390fd5b61068d8383610fbf565b505050565b6106a361069d610fb7565b82611078565b6106e2576040517f08c379a00000000000000000000000000000000000000000000000000000000081526004016106d990612715565b60405180910390fd5b6106ed838383611156565b505050565b61070d83838360405180602001604052806000815250610b99565b505050565b6000806002600084815260200190815260200160002060009054906101000a900473ffffffffffffffffffffffffffffffffffffffff169050600073ffffffffffffffffffffffffffffffffffffffff168173ffffffffffffffffffffffffffffffffffffffff1614156107bb576040517f08c379a00000000000000000000000000000000000000000000000000000000081526004016107b290612635565b60405180910390fd5b80915050919050565b6060600780548060200260200160405190810160405280929190818152602001828054801561081257602002820191906000526020600020905b8154815260200190600101908083116107fe575b5050505050905090565b60008073ffffffffffffffffffffffffffffffffffffffff168273ffffffffffffffffffffffffffffffffffffffff16141561088d576040517f08c379a000000000000000000000000000000000000000000000000000000000815260040161088490612615565b60405180910390fd5b600360008373ffffffffffffffffffffffffffffffffffffffff1673ffffffffffffffffffffffffffffffffffffffff168152602001908152602001600020549050919050565b6108dc610fb7565b73ffffffffffffffffffffffffffffffffffffffff166108fa61095c565b73ffffffffffffffffffffffffffffffffffffffff1614610950576040517f08c379a000000000000000000000000000000000000000000000000000000000815260040161094790612695565b60405180910390fd5b61095a60006113b2565b565b6000600660009054906101000a900473ffffffffffffffffffffffffffffffffffffffff16905090565b6060600180546109959061299e565b80601f01602080910402602001604051908101604052809291908181526020018280546109c19061299e565b8015610a0e5780601f106109e357610100808354040283529160200191610a0e565b820191906000526020600020905b8154815290600101906020018083116109f157829003601f168201915b5050505050905090565b610a20610fb7565b73ffffffffffffffffffffffffffffffffffffffff168273ffffffffffffffffffffffffffffffffffffffff161415610a8e576040517f08c379a0000000000000000000000000000000000000000000000000000000008152600401610a85906125b5565b60405180910390fd5b8060056000610a9b610fb7565b73ffffffffffffffffffffffffffffffffffffffff1673ffffffffffffffffffffffffffffffffffffffff16815260200190815260200160002060008473ffffffffffffffffffffffffffffffffffffffff1673ffffffffffffffffffffffffffffffffffffffff16815260200190815260200160002060006101000a81548160ff0219169083151502179055508173ffffffffffffffffffffffffffffffffffffffff16610b48610fb7565b73ffffffffffffffffffffffffffffffffffffffff167f17307eab39ab6107e8899845ad3d59bd9653f200f220920489ca2b5937696c3183604051610b8d91906124f8565b60405180910390a35050565b610baa610ba4610fb7565b83611078565b610be9576040517f08c379a0000000000000000000000000000000000000000000000000000000008152600401610be090612715565b60405180910390fd5b610bf584848484611478565b50505050565b610c03610fb7565b73ffffffffffffffffffffffffffffffffffffffff16610c2161095c565b73ffffffffffffffffffffffffffffffffffffffff1614610c77576040517f08c379a0000000000000000000000000000000000000000000000000000000008152600401610c6e90612695565b60405180910390fd5b610c8182826114d4565b60078190806001815401808255809150506001900390600052602060002001600090919091909150555050565b6060610cb982610f4b565b610cf8576040517f08c379a0000000000000000000000000000000000000000000000000000000008152600401610cef906126d5565b60405180910390fd5b6000610d026116a2565b90506000815111610d225760405180602001604052806000815250610d4d565b80610d2c846116df565b604051602001610d3d92919061244b565b6040516020818303038152906040525b915050919050565b6000600560008473ffffffffffffffffffffffffffffffffffffffff1673ffffffffffffffffffffffffffffffffffffffff16815260200190815260200160002060008373ffffffffffffffffffffffffffffffffffffffff1673ffffffffffffffffffffffffffffffffffffffff16815260200190815260200160002060009054906101000a900460ff16905092915050565b610df1610fb7565b73ffffffffffffffffffffffffffffffffffffffff16610e0f61095c565b73ffffffffffffffffffffffffffffffffffffffff1614610e65576040517f08c379a0000000000000000000000000000000000000000000000000000000008152600401610e5c90612695565b60405180910390fd5b600073ffffffffffffffffffffffffffffffffffffffff168173ffffffffffffffffffffffffffffffffffffffff161415610ed5576040517f08c379a0000000000000000000000000000000000000000000000000000000008152600401610ecc90612555565b60405180910390fd5b610ede816113b2565b50565b60007f01ffc9a7000000000000000000000000000000000000000000000000000000007bffffffffffffffffffffffffffffffffffffffffffffffffffffffff1916827bffffffffffffffffffffffffffffffffffffffffffffffffffffffff1916149050919050565b60008073ffffffffffffffffffffffffffffffffffffffff166002600084815260200190815260200160002060009054906101000a900473ffffffffffffffffffffffffffffffffffffffff1673ffffffffffffffffffffffffffffffffffffffff1614159050919050565b600033905090565b816004600083815260200190815260200160002060006101000a81548173ffffffffffffffffffffffffffffffffffffffff021916908373ffffffffffffffffffffffffffffffffffffffff160217905550808273ffffffffffffffffffffffffffffffffffffffff1661103283610712565b73ffffffffffffffffffffffffffffffffffffffff167f8c5be1e5ebec7d5bd14f71427d1e84f3dd0314c0f7b2291e5b200ac8c7c3b92560405160405180910390a45050565b600061108382610f4b565b6110c2576040517f08c379a00000000000000000000000000000000000000000000000000000000081526004016110b9906125d5565b60405180910390fd5b60006110cd83610712565b90508073ffffffffffffffffffffffffffffffffffffffff168473ffffffffffffffffffffffffffffffffffffffff16148061113c57508373ffffffffffffffffffffffffffffffffffffffff16611124846104f5565b73ffffffffffffffffffffffffffffffffffffffff16145b8061114d575061114c8185610d55565b5b91505092915050565b8273ffffffffffffffffffffffffffffffffffffffff1661117682610712565b73ffffffffffffffffffffffffffffffffffffffff16146111cc576040517f08c379a00000000000000000000000000000000000000000000000000000000081526004016111c3906126b5565b60405180910390fd5b600073ffffffffffffffffffffffffffffffffffffffff168273ffffffffffffffffffffffffffffffffffffffff16141561123c576040517f08c379a000000000000000000000000000000000000000000000000000000000815260040161123390612595565b60405180910390fd5b61124783838361188c565b611252600082610fbf565b6001600360008573ffffffffffffffffffffffffffffffffffffffff1673ffffffffffffffffffffffffffffffffffffffff16815260200190815260200160002060008282546112a291906128b4565b925050819055506001600360008473ffffffffffffffffffffffffffffffffffffffff1673ffffffffffffffffffffffffffffffffffffffff16815260200190815260200160002060008282546112f9919061282d565b92505081905550816002600083815260200190815260200160002060006101000a81548173ffffffffffffffffffffffffffffffffffffffff021916908373ffffffffffffffffffffffffffffffffffffffff160217905550808273ffffffffffffffffffffffffffffffffffffffff168473ffffffffffffffffffffffffffffffffffffffff167fddf252ad1be2c89b69c2b068fc378daa952ba7f163c4a11628f55a4df523b3ef60405160405180910390a4505050565b6000600660009054906101000a900473ffffffffffffffffffffffffffffffffffffffff16905081600660006101000a81548173ffffffffffffffffffffffffffffffffffffffff021916908373ffffffffffffffffffffffffffffffffffffffff1602179055508173ffffffffffffffffffffffffffffffffffffffff168173ffffffffffffffffffffffffffffffffffffffff167f8be0079c531659141344cd1fd0a4f28419497f9722a3daafe3b4186f6b6457e060405160405180910390a35050565b611483848484611156565b61148f84848484611891565b6114ce576040517f08c379a00000000000000000000000000000000000000000000000000000000081526004016114c590612535565b60405180910390fd5b50505050565b600073ffffffffffffffffffffffffffffffffffffffff168273ffffffffffffffffffffffffffffffffffffffff161415611544576040517f08c379a000000000000000000000000000000000000000000000000000000000815260040161153b90612655565b60405180910390fd5b61154d81610f4b565b1561158d576040517f08c379a000000000000000000000000000000000000000000000000000000000815260040161158490612575565b60405180910390fd5b6115996000838361188c565b6001600360008473ffffffffffffffffffffffffffffffffffffffff1673ffffffffffffffffffffffffffffffffffffffff16815260200190815260200160002060008282546115e9919061282d565b92505081905550816002600083815260200190815260200160002060006101000a81548173ffffffffffffffffffffffffffffffffffffffff021916908373ffffffffffffffffffffffffffffffffffffffff160217905550808273ffffffffffffffffffffffffffffffffffffffff16600073ffffffffffffffffffffffffffffffffffffffff167fddf252ad1be2c89b69c2b068fc378daa952ba7f163c4a11628f55a4df523b3ef60405160405180910390a45050565b60606040518060400160405280602081526020017f687474703a2f2f3139322e3136382e3137382e32303a383038302f6d6574612f815250905090565b60606000821415611727576040518060400160405280600181526020017f30000000000000000000000000000000000000000000000000000000000000008152509050611887565b600082905060005b60008214611759578080611742906129d0565b915050600a826117529190612883565b915061172f565b60008167ffffffffffffffff81111561179b577f4e487b7100000000000000000000000000000000000000000000000000000000600052604160045260246000fd5b6040519080825280601f01601f1916602001820160405280156117cd5781602001600182028036833780820191505090505b5090505b60008514611880576001826117e691906128b4565b9150600a856117f59190612a19565b6030611801919061282d565b60f81b81838151811061183d577f4e487b7100000000000000000000000000000000000000000000000000000000600052603260045260246000fd5b60200101907effffffffffffffffffffffffffffffffffffffffffffffffffffffffffffff1916908160001a905350600a856118799190612883565b94506117d1565b8093505050505b919050565b505050565b60006118b28473ffffffffffffffffffffffffffffffffffffffff16611a28565b15611a1b578373ffffffffffffffffffffffffffffffffffffffff1663150b7a026118db610fb7565b8786866040518563ffffffff1660e01b81526004016118fd949392919061248a565b602060405180830381600087803b15801561191757600080fd5b505af192505050801561194857506040513d601f19601f820116820180604052508101906119459190611cdc565b60015b6119cb573d8060008114611978576040519150601f19603f3d011682016040523d82523d6000602084013e61197d565b606091505b506000815114156119c3576040517f08c379a00000000000000000000000000000000000000000000000000000000081526004016119ba90612535565b60405180910390fd5b805181602001fd5b63150b7a0260e01b7bffffffffffffffffffffffffffffffffffffffffffffffffffffffff1916817bffffffffffffffffffffffffffffffffffffffffffffffffffffffff191614915050611a20565b600190505b949350505050565b600080823b905060008111915050919050565b6000611a4e611a4984612781565b612750565b905082815260208101848484011115611a6657600080fd5b611a7184828561295c565b509392505050565b600081359050611a8881612b17565b92915050565b600081359050611a9d81612b2e565b92915050565b600081359050611ab281612b45565b92915050565b600081519050611ac781612b45565b92915050565b600082601f830112611ade57600080fd5b8135611aee848260208601611a3b565b91505092915050565b600081359050611b0681612b5c565b92915050565b600060208284031215611b1e57600080fd5b6000611b2c84828501611a79565b91505092915050565b60008060408385031215611b4857600080fd5b6000611b5685828601611a79565b9250506020611b6785828601611a79565b9150509250929050565b600080600060608486031215611b8657600080fd5b6000611b9486828701611a79565b9350506020611ba586828701611a79565b9250506040611bb686828701611af7565b9150509250925092565b60008060008060808587031215611bd657600080fd5b6000611be487828801611a79565b9450506020611bf587828801611a79565b9350506040611c0687828801611af7565b925050606085013567ffffffffffffffff811115611c2357600080fd5b611c2f87828801611acd565b91505092959194509250565b60008060408385031215611c4e57600080fd5b6000611c5c85828601611a79565b9250506020611c6d85828601611a8e565b9150509250929050565b60008060408385031215611c8a57600080fd5b6000611c9885828601611a79565b9250506020611ca985828601611af7565b9150509250929050565b600060208284031215611cc557600080fd5b6000611cd384828501611aa3565b91505092915050565b600060208284031215611cee57600080fd5b6000611cfc84828501611ab8565b91505092915050565b600060208284031215611d1757600080fd5b6000611d2584828501611af7565b91505092915050565b6000611d3a838361242d565b60208301905092915050565b611d4f816128e8565b82525050565b6000611d60826127c1565b611d6a81856127ef565b9350611d75836127b1565b8060005b83811015611da6578151611d8d8882611d2e565b9750611d98836127e2565b925050600181019050611d79565b5085935050505092915050565b611dbc816128fa565b82525050565b6000611dcd826127cc565b611dd78185612800565b9350611de781856020860161296b565b611df081612b06565b840191505092915050565b6000611e06826127d7565b611e108185612811565b9350611e2081856020860161296b565b611e2981612b06565b840191505092915050565b6000611e3f826127d7565b611e498185612822565b9350611e5981856020860161296b565b80840191505092915050565b6000611e72603283612811565b91507f4552433732313a207472616e7366657220746f206e6f6e20455243373231526560008301527f63656976657220696d706c656d656e74657200000000000000000000000000006020830152604082019050919050565b6000611ed8602683612811565b91507f4f776e61626c653a206e6577206f776e657220697320746865207a65726f206160008301527f64647265737300000000000000000000000000000000000000000000000000006020830152604082019050919050565b6000611f3e601c83612811565b91507f4552433732313a20746f6b656e20616c7265616479206d696e746564000000006000830152602082019050919050565b6000611f7e602483612811565b91507f4552433732313a207472616e7366657220746f20746865207a65726f2061646460008301527f72657373000000000000000000000000000000000000000000000000000000006020830152604082019050919050565b6000611fe4601983612811565b91507f4552433732313a20617070726f766520746f2063616c6c6572000000000000006000830152602082019050919050565b6000612024602c83612811565b91507f4552433732313a206f70657261746f7220717565727920666f72206e6f6e657860008301527f697374656e7420746f6b656e00000000000000000000000000000000000000006020830152604082019050919050565b600061208a603883612811565b91507f4552433732313a20617070726f76652063616c6c6572206973206e6f74206f7760008301527f6e6572206e6f7220617070726f76656420666f7220616c6c00000000000000006020830152604082019050919050565b60006120f0602a83612811565b91507f4552433732313a2062616c616e636520717565727920666f7220746865207a6560008301527f726f2061646472657373000000000000000000000000000000000000000000006020830152604082019050919050565b6000612156602983612811565b91507f4552433732313a206f776e657220717565727920666f72206e6f6e657869737460008301527f656e7420746f6b656e00000000000000000000000000000000000000000000006020830152604082019050919050565b60006121bc602083612811565b91507f4552433732313a206d696e7420746f20746865207a65726f20616464726573736000830152602082019050919050565b60006121fc602c83612811565b91507f4552433732313a20617070726f76656420717565727920666f72206e6f6e657860008301527f697374656e7420746f6b656e00000000000000000000000000000000000000006020830152604082019050919050565b6000612262602083612811565b91507f4f776e61626c653a2063616c6c6572206973206e6f7420746865206f776e65726000830152602082019050919050565b60006122a2602983612811565b91507f4552433732313a207472616e73666572206f6620746f6b656e2074686174206960008301527f73206e6f74206f776e00000000000000000000000000000000000000000000006020830152604082019050919050565b6000612308602f83612811565b91507f4552433732314d657461646174613a2055524920717565727920666f72206e6f60008301527f6e6578697374656e7420746f6b656e00000000000000000000000000000000006020830152604082019050919050565b600061236e602183612811565b91507f4552433732313a20617070726f76616c20746f2063757272656e74206f776e6560008301527f72000000000000000000000000000000000000000000000000000000000000006020830152604082019050919050565b60006123d4603183612811565b91507f4552433732313a207472616e736665722063616c6c6572206973206e6f74206f60008301527f776e6572206e6f7220617070726f7665640000000000000000000000000000006020830152604082019050919050565b61243681612952565b82525050565b61244581612952565b82525050565b60006124578285611e34565b91506124638284611e34565b91508190509392505050565b60006020820190506124846000830184611d46565b92915050565b600060808201905061249f6000830187611d46565b6124ac6020830186611d46565b6124b9604083018561243c565b81810360608301526124cb8184611dc2565b905095945050505050565b600060208201905081810360008301526124f08184611d55565b905092915050565b600060208201905061250d6000830184611db3565b92915050565b6000602082019050818103600083015261252d8184611dfb565b905092915050565b6000602082019050818103600083015261254e81611e65565b9050919050565b6000602082019050818103600083015261256e81611ecb565b9050919050565b6000602082019050818103600083015261258e81611f31565b9050919050565b600060208201905081810360008301526125ae81611f71565b9050919050565b600060208201905081810360008301526125ce81611fd7565b9050919050565b600060208201905081810360008301526125ee81612017565b9050919050565b6000602082019050818103600083015261260e8161207d565b9050919050565b6000602082019050818103600083015261262e816120e3565b9050919050565b6000602082019050818103600083015261264e81612149565b9050919050565b6000602082019050818103600083015261266e816121af565b9050919050565b6000602082019050818103600083015261268e816121ef565b9050919050565b600060208201905081810360008301526126ae81612255565b9050919050565b600060208201905081810360008301526126ce81612295565b9050919050565b600060208201905081810360008301526126ee816122fb565b9050919050565b6000602082019050818103600083015261270e81612361565b9050919050565b6000602082019050818103600083015261272e816123c7565b9050919050565b600060208201905061274a600083018461243c565b92915050565b6000604051905081810181811067ffffffffffffffff8211171561277757612776612ad7565b5b8060405250919050565b600067ffffffffffffffff82111561279c5761279b612ad7565b5b601f19601f8301169050602081019050919050565b6000819050602082019050919050565b600081519050919050565b600081519050919050565b600081519050919050565b6000602082019050919050565b600082825260208201905092915050565b600082825260208201905092915050565b600082825260208201905092915050565b600081905092915050565b600061283882612952565b915061284383612952565b9250827fffffffffffffffffffffffffffffffffffffffffffffffffffffffffffffffff0382111561287857612877612a4a565b5b828201905092915050565b600061288e82612952565b915061289983612952565b9250826128a9576128a8612a79565b5b828204905092915050565b60006128bf82612952565b91506128ca83612952565b9250828210156128dd576128dc612a4a565b5b828203905092915050565b60006128f382612932565b9050919050565b60008115159050919050565b60007fffffffff0000000000000000000000000000000000000000000000000000000082169050919050565b600073ffffffffffffffffffffffffffffffffffffffff82169050919050565b6000819050919050565b82818337600083830152505050565b60005b8381101561298957808201518184015260208101905061296e565b83811115612998576000848401525b50505050565b600060028204905060018216806129b657607f821691505b602082108114156129ca576129c9612aa8565b5b50919050565b60006129db82612952565b91507fffffffffffffffffffffffffffffffffffffffffffffffffffffffffffffffff821415612a0e57612a0d612a4a565b5b600182019050919050565b6000612a2482612952565b9150612a2f83612952565b925082612a3f57612a3e612a79565b5b828206905092915050565b7f4e487b7100000000000000000000000000000000000000000000000000000000600052601160045260246000fd5b7f4e487b7100000000000000000000000000000000000000000000000000000000600052601260045260246000fd5b7f4e487b7100000000000000000000000000000000000000000000000000000000600052602260045260246000fd5b7f4e487b7100000000000000000000000000000000000000000000000000000000600052604160045260246000fd5b6000601f19601f8301169050919050565b612b20816128e8565b8114612b2b57600080fd5b50565b612b37816128fa565b8114612b4257600080fd5b50565b612b4e81612906565b8114612b5957600080fd5b50565b612b6581612952565b8114612b7057600080fd5b5056fea264697066735822122050a4799b7774a3df3371e4ba5063b87a64d8088c582ded1a650475319df6a51864736f6c63430008000033",
  "immutableReferences": {},
  "source": "// SPDX-License-Identifier: MIT\npragma solidity ^0.8.0;\n\nimport \"@openzeppelin/contracts/token/ERC721/ERC721.sol\";\nimport \"@openzeppelin/contracts/access/Ownable.sol\";\n\ncontract ColorCoin is ERC721, Ownable {\n\n    uint256[] private _tokenIds;\n\n    constructor() ERC721(\"ColorCoin\", \"COL\") {}\n\n    function _baseURI() internal view virtual override returns (string memory) {\n        return \"http://192.168.178.20:8080/meta/\";\n    }\n\n    function createColor(address to, uint256 tokenId) onlyOwner public {\n        super._mint(to, tokenId);\n        _tokenIds.push(tokenId);\n    }\n\n    function getTokenIds() public view virtual returns (uint256[] memory) {\n        return _tokenIds;\n    }\n\n}\n",
  "sourcePath": "/Users/guligo/Dev/color-store/color-store-contract/contracts/ColorCoin.sol",
  "compiler": {
    "name": "solc",
    "version": "0.8.0+commit.c7dfd78e.Emscripten.clang"
  },
  "schemaVersion": "3.4.3",
  "updatedAt": "2021-11-24T21:17:32.798Z",
  "networkType": "ethereum",
  "devdoc": {
    "kind": "dev",
    "methods": {
      "approve(address,uint256)": {
        "details": "See {IERC721-approve}."
      },
      "balanceOf(address)": {
        "details": "See {IERC721-balanceOf}."
      },
      "getApproved(uint256)": {
        "details": "See {IERC721-getApproved}."
      },
      "isApprovedForAll(address,address)": {
        "details": "See {IERC721-isApprovedForAll}."
      },
      "name()": {
        "details": "See {IERC721Metadata-name}."
      },
      "owner()": {
        "details": "Returns the address of the current owner."
      },
      "ownerOf(uint256)": {
        "details": "See {IERC721-ownerOf}."
      },
      "renounceOwnership()": {
        "details": "Leaves the contract without owner. It will not be possible to call `onlyOwner` functions anymore. Can only be called by the current owner. NOTE: Renouncing ownership will leave the contract without an owner, thereby removing any functionality that is only available to the owner."
      },
      "safeTransferFrom(address,address,uint256)": {
        "details": "See {IERC721-safeTransferFrom}."
      },
      "safeTransferFrom(address,address,uint256,bytes)": {
        "details": "See {IERC721-safeTransferFrom}."
      },
      "setApprovalForAll(address,bool)": {
        "details": "See {IERC721-setApprovalForAll}."
      },
      "supportsInterface(bytes4)": {
        "details": "See {IERC165-supportsInterface}."
      },
      "symbol()": {
        "details": "See {IERC721Metadata-symbol}."
      },
      "tokenURI(uint256)": {
        "details": "See {IERC721Metadata-tokenURI}."
      },
      "transferFrom(address,address,uint256)": {
        "details": "See {IERC721-transferFrom}."
      },
      "transferOwnership(address)": {
        "details": "Transfers ownership of the contract to a new account (`newOwner`). Can only be called by the current owner."
      }
    },
    "version": 1
  },
  "userdoc": {
    "kind": "user",
    "methods": {},
    "version": 1
  }
}